:020000040800F2
:10000000F8BF012019010208C3260508B12605081A
:10001000C5260508D1260508DD26050800000000D4
:10002000000000000000000000000000E9260508B4
:10003000EB26050800000000CD340508E53405086E
:100040000100020869270508752705087D270508AE
:10005000FD8A050801000208A97F0508AF7F050891
:10006000B57F0508BB7F0508C17F05080552050857
:100070001552050825520508355205084552050850
:1000800055520508655205080100020800000000ED
:10009000000000000000000000000000C77F05080D
:1000A0009127050897270508A9270508AF27050800
:1000B000B5270508BB270508C1270508A55705086A
:1000C000C1570508DD570508F95705080100020862
:1000D00001000208E1270508E727050800000000E5
:1000E000EB7F05086F270508F926050800000000CA
:1000F000000000000000000000000000755205082C
:100100000000000001000208C927050801000208DC
:1001100000000000000000000000000000000000DF
:100120008552050895520508A5520508B5520508DF
:10013000C55205080000000000000000000000009B
:10014000000000000000000000000000ED2605088F
:10015000D5520508E5520508F5520508ED270508B2
:10016000155805083158050800000000000000007F
:10017000000000000000000000000000000000007F
:100180000000000001000208000000000000000064
:08019000010002080100020851
:10019800006870470B0A017043700B0C090E8370DE
:1001A800C1707047036A0239023B8B4283BFC3891F
:1001B800406B01FB030000207047034600F10B0170
:1001C8000020C20142EA500213F8010B50FA82F2F1
:1001D8008B42D0B2F5D1704737B50D46044620B9E9
:1001E800092000232B6003B030BD0368002BF7D033
:1001F8005A79002AF4D081885A899142F0D1186836
:100208000DF10702062102F0E9FA9DF8073003F024
:100218000103034313F0FF00E2D12368E2E738B596
:10022800C3790446C3B100F13C05826B0068012321
:10023800294602F0BEFA88B9A16BE36A626AE071E6
:10024800CB1A934208D2A379022B05D10A4420681D
:100258000123294602F0ADFA002038BD0120FCE751
:10026800F8B50446FFF7DBFF0546002842D163795D
:10027800032B37D1277A012F34D104F13C060146EC
:100288004FF40072304649F03BFC552384F83A326B
:10029800AA2384F83B3252234122722184F83C304D
:1002A80084F83D30612384F83E3084F8233284F8A2
:1002B8003F2084F8201284F8211284F82222A169B0
:1002C80004F50970FFF766FF616904F50A70FFF726
:1002D80061FFA26A20680132A2633B46314602F000
:1002E80068FA257200222068114602F077FA003871
:1002F80018BF0120F8BD2DE9F0470026D0F800907E
:100308008E75836907460C46002B7DD0C36A01337E
:100318005FD1F96900234D1E184615F8012F202AD0
:1003280000F101000DD0052A08BFE522092805D1F2
:100338000B2B9FBFE6182E2777720133E61801337F
:1003480072720B28E9D1E21800205072A27D002AAF
:100358004FD1002B44D004F1080308255A78581CC3
:10036800002A53D11B1B083B3DE0B8F1000F05D113
:1003780000F520539BB2B3F5006F13D340F2B511CB
:1003880040EA084043F062F8FF28C5F1FF0A18D98F
:10039800BAF1010F20D96319020A9A75D875022398
:1003A8001D44002002368046D9F81030985B00289A
:1003B800DBD1B8F1000F18BF002525440023AB7529
:1003C800A7E748B1BAF1000F08D06319987501235F
:1003D800E6E7B0463546E7E70025EAE75546E8E7A9
:1003E8003F23A3750123234400229A750B7B03B98D
:1003F8006372CB7A237201F11C00FFF7C9FE2060FB
:10040800CB8AE3800B8BA380BDE8F0872E2A1346A6
:1004180009D0413A192A03D80A7B154200D0203363
:10042800437303469AE71025FAE7C2F307238A764F
:10043800CB764379032B01BF120C0A75120A4A7551
:10044800704738B5836B8B4204460D460FD0FFF7D3
:10045800E6FE58B9206801232A4604F13C0102F05F
:1004680099F910B101204FF0FF35A56338BD002080
:10047800FCE7000038B50023C3714FF0FF338363F6
:100488000546FFF7DEFF044608BBB5F83A224AF6F0
:1004980055239A421DD195F83C2002F11803DBB28E
:1004A800012B01D9EB2A16D10C49032205F1720060
:1004B80049F052FB48B10A49052205F18E0049F07E
:1004C8004BFB041E18BF01246400204638BD0424D9
:1004D800FBE70324F9E70224F7E700BF00DF05087C
:1004E80004DF0508F0B5437987B0044601F0FE053E
:1004F8008BB100680DF10702062102F06FF99DF833
:100508000730DE0707D40DB15C0702D4002007B01E
:10051800F0BD0A20FBE70023637120680DF1070294
:10052800052102F05BF99DF80730D80700F1ED804E
:100538000DB15907EDD400212046FFF79BFF022893
:10054800034603D0012824D8257975B302AA04F2FA
:10055800022304F24221174613F8040C10B118467E
:10056800FFF716FE10338B4242F8040BF4D12679BC
:1005780006B1013E57F826507DB129462046FFF7BF
:1005880079FF0346227952B9012B0ED90136032E81
:10059800F0D9042B07D10120B9E70323F2E7042B94
:1005A800F9D0012B01D90D20B1E7B4F84730B3F5E4
:1005B800007FF8D1B4F8521021B904F16000FFF7B8
:1005C800E7FD014694F84C3061625A1E012AA37176
:1005D800E9D894F84960E681002EE4D0721E3242D0
:1005E800E1D1B4F84D70A7813A07DCD1B4F84F00D7
:1005F80018B904F15C00FFF7CBFDB4F84A20002AD3
:10060800D1D001FB03FE02EB171CF4446045CAD3AA
:10061800A0EB0C00B042B0FBF6F3C4D33C488342D5
:10062800C1D84FF6F57083425DD840F6F576B342EF
:100638008CBF0226012602332A4405EB0C00032E48
:100648002362A562E26260634FD1B4F866203A4340
:10065800A9D104F16800FFF79BFD9B0003F2FF138B
:10066800B1EB532F20639ED34FF0FF33C4E905331A
:10067800032E4FF0800323722BD1B4F86C30012B7A
:1006880027D1691C2046FFF7DCFE10BBB4F83A22DC
:1006980020724AF655239A421BD104F13C00FFF719
:1006A80077FD1C4B984214D104F50870FFF770FDD4
:1006B80003F1FF5303F500532033984209D104F5A1
:1006C8000970FFF765FDA06104F50A70FFF760FD8A
:1006D8006061114A6671138801339BB2138063818C
:1006E8000023E36112E70326A5E7002F3FF45BAF81
:1006F800022E02EB0E004FEA43021BBFD21803F092
:100708000103134603EB5203A8E70320FFE600BFEB
:10071800F5FFFF0F52526141EC03002001292DE93A
:10072800F84305460C4616466ED9036A8B426BD9C8
:100738004379022B3FD0032B4FD0012B64D101EB1F
:100748005107C16A01EB5721FFF77BFE10B1012069
:10075800BDE8F88305F13C0807F10109C7F308076C
:1007680014F0010418BF18F80720F3B21EBF02F0F6
:100778000F0242EA0313DBB208F80730E96A0123E3
:10078800EB7101EB59212846FFF75BFE0028DED10B
:10079800C9F308023CB1C6F3071608F80260012342
:1007A800EB710020D4E718F80230C6F3032623F0D3
:1007B8000F031E43F1E7C16A01EB1421FFF741FE65
:1007C8000028C4D1640005F13C0304F4FF741A192D
:1007D8001E55C6F307265670E1E7C16A01EBD4112E
:1007E800FFF72FFE0028B2D1A40005F13C0304F462
:1007F800FE7423441846FFF7CBFC014666F31B0141
:100808001846FFF7C7FCCAE70220A1E7F8B5054676
:100818000E46FFF704FD0446A0B931462846FFF707
:10082800C1FC05F13C070646A8634FF40072214657
:10083800384649F065F9EB899C4205D3EB891C1BC6
:1008480018BF01242046F8BD28680123321939460B
:1008580001F0AFFF0028F1D10134ECE703284B8BFE
:1008680004BF8A8A43EA0243184670470129F8B54B
:1008780006460C464ED9036A99424BD24379022B5D
:1008880029D0032B34D0012B44D101EB5105C16A87
:1008980001EB5521FFF7D5FD10B14FF0FF30F8BD42
:1008A8006F1CF16AC5F30805354401EB5721304642
:1008B80095F83C50FFF7C5FD0028EED1C7F30807AF
:1008C800374497F83C3045EA0320E3074CBF00095A
:1008D800C0F30B00E3E7C16A01EB1421FFF7B1FD98
:1008E8000028DAD1640004F4FF743444A08FD6E7FA
:1008F800C16A01EBD411FFF7A4FD0028CDD1A400F3
:1009080006F13C0004F4FE742044FFF741FC20F09B
:100918007040C4E70120C2E7F8B50C46012C056811
:10092800064611462BD92B6AA34228D92AB14FF083
:10093800FF322846FFF7F2FE38B921463068FFF744
:1009480095FF2746044608B90020F8BD012816D0AF
:10095800431C16D0002239462846FFF7DFFE002840
:10096800F3D12A6AAB69911E8B4205D20133AB6180
:100978002B7A43F001032B72A242DED8E4E702206F
:10098800E3E70120E1E72DE9F843056881460F46D2
:1009980049B96E69C6B12B6AB34298BF0126AB69E3
:1009A800A3B9002406E02846FFF760FF01280446A3
:1009B80003D801242046BDE8F883421C54D02B6A92
:1009C8008342F7D83E46EAE70126E8E7BE4216D159
:1009D8002B6AD9F80000741C9C4228BF02242146C7
:1009E800FFF744FF0128E4D0431C3DD0F0B1D5F80F
:1009F8001480B8F1010F02D92B6A434500D8B046DC
:100A080044462B6A0134A34203D8B8F1010FC8D079
:100A18000224D9F800002146FFF728FF40B1012839
:100A2800C7D0013020D04445EBD1BAE7002CE6D03E
:100A38004FF0FF3221462846FFF770FE90B957B9AC
:100A48002A6AAB696C61023A934210D92B7A43F057
:100A580001032B72AEE7224639462846FFF75EFEB1
:100A68000028EDD00128A4D14FF0FF34A2E7013BC4
:100A7800AB61EBE72DE9F843076906682037B7F55E
:100A8800001F24BF0023836183690446894673B12C
:100A9800C7F30808B8F1000F39D141690133836100
:100AA80041B9B389B3EB571F31D80023A3610420A0
:100AB800BDE8F883F389013B13EA572327D1304671
:100AC800FFF7D4FE0128054601D80220F0E7421CB2
:100AD80001D10120ECE7336A834212D8B9F1000F43
:100AE800E3D061692046FFF74EFF0546A8B101280B
:100AF800EBD0431CEDD001463046FFF787FE0028B7
:100B0800E7D1656129463046FFF74CFBA0613C36CA
:100B180046442761E6610020CAE70720C8E70000CD
:100B28002DE9F047FF25076880460E46A9460424AC
:100B3800D8F8181019B9002C74D004245BE0384692
:100B4800FFF77FFC0446002855D1D8F81C0001782F
:100B58000029F2D0C37AE52903F03F0388F806306C
:100B68004FD02E294DD023F02002A2F1080CDCF141
:100B7800000242EB0C02B24243D10F2B47D14C0684
:100B88003DD5D8F81030457BC8F82C3001F0BF01AE
:100B9800437BAB4235D1428B9ABB0378D7F810C060
:100BA800DFF8889023F040030D24013B63434FF6A0
:100BB800FF7A012419F801EB30F80EE024B3FF2B7B
:100BC8001FD82CF813E07446013301320D2AF1D1F5
:100BD8000278520605D524B1FF2B12D800222CF832
:100BE80013204B1E5FFA83F900214046FFF742FFAE
:100BF800044600289CD00023C8F8183012E0894524
:100C0800C6D04FF0FF09EFE7D645DED0F9E7B9F1D6
:100C1800000F03D1FFF7D1FAA84203D04FF0FF33FA
:100C2800C8F82C302046BDE8F08700BFF6830608D8
:100C3800B1F5001FF8B506460C4601D30220F8BDF1
:100C4800CA06FBD1826805680161BAB96B79022BC3
:100C580001D92B6B9BB9AB89B3EB541FEED9286B29
:100C6800C6E905200028E9D000EB54203C35C4F340
:100C780008042544B061F5610020E0E71346EF89D8
:100C88001A467F02BC42114603D22846FFF78AFA69
:100C9800E6E73068FFF7EAFD431C024606D0012864
:100CA800CCD92B6A8342C9D9E41BEBE70120C6E7FC
:100CB800F8B50E46002107680446FFF7B9FF68B982
:100CC8000546A1693846FFF7BCFB38B9E3691B78CC
:100CD800E52B00D01BB90135B54201D1F8BD054659
:100CE80001212046FFF7C6FE0028EAD0042808BFE5
:100CF8000720F3E7C16A4B1C2DE9F0410568066936
:100D0800044618D1E5274FF00108A1692846FFF7E6
:100D180098FBA0B9E3691F7085F807802369B3427F
:100D28000DD201462046FFF7A5FE0028EDD0042885
:100D380008BF022003E0FFF77BFF0028E2D0BDE8F0
:100D4800F08100002DE9F04F002187B0D0F800A015
:100D58000446FFF76DFF0546002840F08A804FF0F3
:100D6800FF394FF0FF0804F12003C4F82C90C34664
:100D78000293A1695046FFF764FB0546002878D125
:100D8800E6693778002F78D0F27AE52F02F03F0332
:100D9800A37103D0100758D50F2B02D0C4F82C909C
:100DA8004BE094F82B3059063DD47A0643D5236995
:100DB80096F80D80E36207F0BF07737B43453CD18B
:100DC800738B002B39D13578DAF810B005F03F0570
:100DD8000D23013D5D432A4B012113F8012BB25A23
:100DE80071B3FF2D059328D81046049242F060FB9A
:100DF8006B1C03903BF81500019342F059FB0399D3
:100E080081421AD1049A019D059B11461D4A9A42B6
:100E1800E3D133785B0603D511B13BF8153063B9DC
:100E2800013F5FFA87FB00212046FFF723FE0546B6
:100E380000289ED01DE0BB45BFD04FF0FF0BF2E766
:100E48004FF6FF708242E1D0F7E7BBF1000F04D103
:100E58003046FFF7B2F940450BD094F82B5015F007
:100E680001059BD102990B22304648F075FE0028F7
:100E780094D1284607B0BDE8F08F0425F9E700BFF4
:100E8800F6830608038406082DE9F04F90F82B3006
:100E980013F0A00889B0054640F0E6800768396974
:100EA80031F81820002A70D105F1200696E80700CD
:100EB8000DF1140A8AE80700DA0740F1DC804022C5
:100EC800864C85F82B204FF0010B9AE80700B446B2
:100ED800D7F810E0ACE803002CF8022BBBF1050FA3
:100EE8004FEA12428CF8002062D9AEF102005A464D
:100EF80030F8021F00294BD1D446072102F00F0E0B
:100F08000EF13000392888BF0EF137000F2A0CF88F
:100F1800010D01F1FF314FEA12104BD801F1200207
:100F28006A447E2002F8140C05F11F008446002252
:100F3800914206D01CF801EFBEF1200F02F1010921
:100F48003AD107299CBF01F1200CEC4402F10102BF
:100F580096BF1CF814CC4FF0200C0131072A00F87A
:100F680002C0EED928460193FFF7ECFE019B8146AB
:100F780000287CD10BF1010BBBF1640FA5D14FF018
:100F88000709484609B0BDE8F08F08F1010887E76E
:100F98004FF0100C01F0010E0EEB420212F4803FEC
:100FA80018BF6240BCF1010C4FEA5101F2D19FE732
:100FB8005A46A1E70246A1E74A46B9E72969284601
:100FC800A1EB4411FFF734FE81460028D9D1304601
:100FD800FFF7F3F84FF6FF780190A9693846FFF755
:100FE80030FA81460028CCD1EB69019AD7F810E095
:100FF8005A73E1B24FF00F024FF00D0CDA72DFF8BE
:10100800E0A018734A1E0CFB02F29876D876844644
:101018001AF8019B404518BF3EF8120003F8090072
:1010280003EB090B0CF1010C18BF01324FEA102930
:10103800002808BF4046BCF10D0F8BF80190E7D19E
:10104800404502D03EF812200AB941F0400119701B
:101058000123FB7100212846FFF70CFD814600287B
:101068008FD1013CB9D11AE04FF0060989E704286D
:1010780087D185F82B309B0745BF08F10C040D2359
:101088000124B4FBF3F448BF013421462846FFF796
:101098000FFE814600287FF474AF013C8ED1A96908
:1010A8003846FFF7CEF9814600287FF46AAF01463B
:1010B8002022E86948F024FD03CEEB6918605960E6
:1010C800B278318819819A7295F82B30EA6903F061
:1010D800180313730123FB7153E700BF21100100AC
:1010E800F68306082DE9F04F85B0036801930B7865
:1010F8002F2B0646884601D05C2B0AD1424613782E
:101108002F2B904602F10102F9D05C2BF7D0002377
:1011180001E0019BDB69B36098F800301F2B00F2F7
:10112800FE8080230021304686F82B3005B0BDE8CC
:10113800F04FFFF77DBD2F2811D05C280FD07F28F6
:1011480007D8AA4A12F8013B1BB19842FAD10620E7
:10115800D1E0FF2DFBD02AF815000135E3E0424627
:1011680013782F2B904602F10102F9D05C2BF7D0AF
:101178000024E6E0022D04D1BAF802302E2B00F04C
:10118800E3800AEB450306E033F8022D202A01D05C
:101198002E2A02D1013D002DF6D14FF000032AF886
:1011A80015300AEB4502002DD1D000213AF8110084
:1011B80020280B4601F10101F8D00BB92E2802D1E5
:1011C80044F00304E4B232F8021D2E2901D0013D97
:1011D800F9D14FF020324FF0000972623262C6F83E
:1011E80027204FF0080B4F463AF813005A1C0028E6
:1011F80000F0E480202804D02E2807D1AA4200F06D
:10120800D18044F00304E4B21346EDE7D94580F0F9
:10121800CC80AA4212D1BBF10B0F07D1C9E0AA4278
:1012280004D044F00304E4B200F2C880BF00FFB267
:101238002A464FF00B0B4FF00809E5E77F2837D90E
:1012480044F00203DBB240F2B5110392029342F07C
:10125800FDF810F0800FDDE902320FD0644900F08C
:101268007F00085C28B1634C14F8011B11B3884255
:10127800FAD143F00303DBB25F2011E0FF28F1D974
:101288000BF1FF31894504D344F00304E4B2D94695
:10129800BAE706EB0901040A81F8204009F10109BF
:1012A80006EB09011C4681F8200009F10109ABE7AA
:1012B8002346D8E7A0F1410189B2192902D847F09D
:1012C8000207EDE7A0F1610189B219299EBF203814
:1012D80047F0010780B2E3E7A5074BD407F0010305
:1012E80044EA0313DCB2780748BF44F0080441E03D
:1012F800002A08BF052005B0BDE8F08F5A074DD475
:10130800B379DB064CD5019B03F13C013369C3F388
:1013180008031944019B5879FFF7A0FAB0603368B5
:10132800D3F810A0002518F8010B48B140F2B51108
:1013380042F0AAF800283FF40AAF1F283FF6FBAE98
:101348000424012D7FF416AFBAF800302E2B7FF459
:1013580018AF00232AF8153006F11F029D4294BFEA
:1013680020212E2101330B2B02F8011FF6D144F066
:101378002004E4B286F82B403046FFF7E3FC96F8E9
:101388002B300028BAD00428B5D1990603F00402FE
:10139800AED5002AC3D0802386F82B300020AAE7D8
:1013A8000520A8E7D945FFF436AFBBF10B0F7FF452
:1013B80036AF44F00304E4B24FF00B0B96F820303C
:1013C800E52B04BF052386F82030BBF1080F04BFC6
:1013D800BF00FFB207F00C030C2B04D007F0030387
:1013E800032B7FF479AF44F00204C2E70ADF050853
:1013F8007683060813DF050800214171FFF772B8EC
:101408002DE9F0470546ADF50C7D924699460C4608
:10141800002900F0C18003F03F084146FFF762F859
:101428000746002840F0B0800CAB2B615146684657
:101438006E460095FFF756FE20B99DF92B30002B1C
:10144800B8BF062019F01C0F00F0838000283FD099
:10145800042840F099803046FFF716FD002840F038
:10146800938048F00808D6F81CA068795146FFF721
:10147800F5F9814657F018FD01460AF10E00FEF70E
:1014880089FEF3692022DA72F16900222846FEF704
:10149800CCFFF36900221A775A779A77DA77012313
:1014A800EB71B9F1000F10D049463046D5F838A095
:1014B800FFF732FA002867D151462846FEF7C1FFE8
:1014C80009F1FF336B6100285ED148F0400809E05C
:1014D800B37913F0110F45D119F0040F53D119F056
:1014E800080FC0D1AB6BF169236261626879FFF7BD
:1014F800B5F9A060034601F11C00FEF749FE6A89B0
:10150800A28018F0200F4FF000020646E060256028
:1015180084F810806274E261626115D0A0B1B5F8F8
:101528000E8060614FEA4828B0451DD30020A361B2
:1015380050BBC6F308023AB119462846FEF732FEF8
:1015480040B300EB5620E06138460DF50C7DBDE850
:10155800F087C8B9B379D8061AD419F0020FC1D0E8
:10156800D907BFD507200FE019462068FFF77EF995
:1015780001280346A6EB080603D9421CD4D1012052
:10158800D5E70220D3E70820002323600746DBE7DE
:101598000420F9E70220F7E70927D5E72DE9F04FFE
:1015A8009A4685B000238946CAF8003003A9044644
:1015B8001546FEF711FE002840F0868094F8118049
:1015C800B8F1000F1FD194F810B01BF0010300937D
:1015D8007DD0E6686369F61AAE4228BF2E4696B1FA
:1015E8006269039FC2F30803002B55D1FB89013BB5
:1015F80013EA522B18D152B9A06801280CD84FF021
:10160800020884F81180404605B0BDE8F08FA16952
:101618002068FFF72BF9F0E7431C04D10123DDF81C
:1016280000806374EFE7A061A1693846FEF7BAFD50
:101638000028E4D0B6F5007F0BEB00022BD3F98924
:1016480001920BEB562088424FEA562588BFA1EB42
:101658000B0538682B46494601F09CF80028DDD177
:10166800FB7963B1B86B019A801AA84207D24FF48C
:10167800007207F13C0109EB402048F0FDF96D02CA
:10168800DAF800302B44CAF8003063692B44761B23
:10169800A9446361A3E7E2616569E169C5F30805E7
:1016A800C5F50075B542384628BF3546FEF7C9FE70
:1016B8000028B3D161693C37C1F308012A4639448F
:1016C800484648F0D9F9DBE74FF009089BE74FF0A7
:1016D800070898E72DE9F04F9A4685B00023894618
:1016E800CAF8003003A904469046FEF775FD0028A5
:1016F80040F0A980677C1FBB237C9A0740F1A58036
:10170800636913EB080F01D36FEA0308B8F1000F00
:1017180012D06369039EC3F30802002A77D1F589C2
:10172800013D15EA53251ED173B9A16871B9204648
:10173800FFF729F9014648B9237C43F04003237495
:10174800384605B0BDE8F08FA169F0E7012902D15C
:1017580002276774F4E74B1C01D10127F9E7A36856
:10176800A16103B9A160B26BE3699A4204D1304622
:10177800FEF755FD0028F0D1A1693046FEF712FDAD
:101788000028E5D0B8F5007F05EB000B32D3F189CE
:1017980005EB582088424FEA5823306888BF4B1B16
:1017A8005A464946019301F004F805460028D4D169
:1017B800B16B019BA1EB0B01994209D24FF4007266
:1017C80009EB412106F13C0048F056F9019BF571FF
:1017D8005D02DAF800302B44CAF800306369A8EBE0
:1017E8000508A9441D44E3686561AB422CBFE3606A
:1017F800E5608BE76169E368994206D33046FEF7F6
:101808000EFD0028A9D1C6F838B0C4F81CB0656927
:10181800E169C5F30805C5F500754545304628BF9B
:101828004546FEF70EFE002897D1636906F13C0095
:10183800C3F3080318442A46494648F01DF94FF0F7
:101848000103F371C5E709277AE7072778E72DE948
:10185800F34101A90546FEF7BFFC88BB2C7C14F0B8
:10186800400429D057F020FB019F296A804638465A
:10187800FEF7E7FD0446F8B96E6AF37A43F02003F1
:10188800F372AA6828683146FEF7CFFDE96806F1C9
:101898001C00FEF77FFC414606F11600FEF77AFCB5
:1018A8000123B474F4743846FB71FEF7D9FC2B7C21
:1018B80023F0400304462B74204602B0BDE8F081B3
:1018C8000924F9E713B50446FFF7C1FF28B901A9B0
:1018D8002046FEF781FC10B9206002B010BD092037
:1018E800FBE7F0B50F46ADF50D7D00210546FEF787
:1018F800F9FD044670B90CAB2B6139466846009572
:10190800FFF7F0FB044698B99DF92B30002B05DA58
:10191800029BEB6120460DF50D7DF0BD9DF806306C
:10192800DB0609D507996879FEF798FFE861F1E7C2
:10193800042808BF0524EDE70524EBE72DE9F04F5F
:101948000D460021ADF5557D297006461746FEF770
:10195800C9FD019000BB54ABD6F81C9033610DF162
:1019680008083C46C8F80060B9F1000F1BD1BC421A
:1019780002D1013C2F232B552B46611B1A5D03F81E
:10198800012B5A189742F9D87B1E1B1B0134A7421A
:1019980038BF002301351D44019800232B700DF535
:1019A800557DBDE8F08F20214046C8F81CB0C8F826
:1019B8000890FFF73DF9D8F81CB08246C0BBD8F8AC
:1019C80018103046FEF73DFD824688BB70795946AF
:1019D800FEF744FF5146C8F808004046FFF728F9CB
:1019E800D8F80830D8F81C10824608BBC8F81C1074
:1019F80040460021C8F80830FFF792F8D8F81CB024
:101A0800824680B970795946FEF728FF48451ED0AE
:101A180051464046FFF72EF8D8F80830D8F81C1081
:101A280082460028E2D0BAF1040F08BF4FF0020A3C
:101A3800CDF804A0B0E7013B0EAA02EB030C9CF81A
:101A480016C000F801CD15E04FF0110AF0E7404646
:101A58000EA9D8F80890FEF74EFC0DF14D0053463C
:101A680010F8012F19460133002AF9D19C42EBD313
:101A780028190B46002BDED1631E5C1A2B445B1A17
:101A88002F21197070E72DE9F7430D4601A9044687
:101A9800FEF7A2FB00287DD1667C002E51D1E368B9
:101AA800AB4204D2227C12F0020F08BF1D4600226E
:101AB800636962619DB90020E2686369934282BFED
:101AC800227CE36042F04002C3F3080388BF22741B
:101AD800002B36D0E369834233D0E06131E0DDF892
:101AE8000480B8F80E707F027BB1013B6A1EB3FB1D
:101AF800F7F1B2FBF7F28A4207D37A421340A169A1
:101B08006361ED1A0029D6D002E0A16889B1A1610C
:101B1800BD42636920D863692B446361C5F3080338
:101B2800002BC8D04046FEF73DFB40B100EB5520E6
:101B3800C2E72046FEF727FF0128014605D1022605
:101B48006674304603B0BDE8F083481C01D1012615
:101B5800F6E7A160A161D5E73B446361237C9A075E
:101B6800A5EB070906D52046FEF70DFF054628B95F
:101B78000146D0E72068FEF779FE05466B1CE6D0E3
:101B8800012DDCD9D8F82030AB42D8D9A561294637
:101B98004D46BDE70926D4E770B50546ADF5007D8D
:101BA80016460C4649B30021FEF79CFCD0B92560C7
:101BB8003146C5F810D02046FFF794FAB8B994F921
:101BC8002B30002B07DBA379DB0614D56879E16994
:101BD800FEF744FEA0606B89A38000212046FFF732
:101BE80027F808B1002323600DF5007D70BD042897
:101BF80008BF0520F6E70520F4E70920F4E713B548
:101C080001A90446FEF7E8FA00B9206002B010BD49
:101C180070B5ADF5027D01AE0D4631460446FEF7BE
:101C2800DBFA0146F8B93DB9294620460DF5027D93
:101C3800BDE87040FEF7FCBF336802AA1A6120466F
:101C4800FEF76EFF10F0FB060AD129462046FEF784
:101C580052FB31462046FEF70DFF042808BF00203E
:101C68000DF5027D70BD0920FAE72DE9F04188469F
:101C7800ADF50C7D002107461646FEF733FC0097AC
:101C8800044680B90CAB3B6141466846FFF72AFA27
:101C9800044640B99DF92B30002B09DB1EB13146B3
:101CA8006846FEF728FB20460DF50C7DBDE8F0815F
:101CB8000624F8E72DE9F84F884600210446FEF788
:101CC80011FC054640B9D4F820A0A369AAF1020284
:101CD800934204D8C8F800302846BDE8F88F6379E5
:101CE800012B17D10227064639462046FEF7BEFDCE
:101CF800431C34D0012834D000B90136236A013797
:101D0800BB42F1D8C8F80060237AA66143F001030A
:101D18002372E1E7E16A0746064604F13C0937B950
:101D2800204601F1010BFEF78CFBE0B959466379B7
:101D3800022B0AD1E3199B8F03B901360237BAF196
:101D4800010AC7F30807EAD1DCE709EB0700FEF749
:101D58001FFA30F0704308BF01360437EFE701255A
:101D6800D0E70225CEE70546CCE72DE9F0410F463E
:101D7800ADF5187D02210546FEF7B4FB0446A8B967
:101D880018AB2B61394668460095FFF7ABF96E46EC
:101D9800044658B99DF82B309A0641D41B063FD407
:101DA8009DF8068018F0010F05D0072420460DF590
:101DB800187DBDE8F08107996879FEF74FFD18F0A6
:101DC800100F07460BD13046FEF794FF0446002853
:101DD800ECD1E7B92846FEF743FA0446E6E7EB6993
:101DE8008342E2D00DF130080E90214640460C9512
:101DF800FEF71EFF04460028D8D101464046FEF7EC
:101E08008FFE04460028D0D00428CFD1DBE7024655
:101E180039463046FEF780FD04460028C6D1D9E78A
:101E28000624C3E72DE9F0470E46ADF5107D0221E3
:101E38000546FEF757FB044600286FD104AF10ABE8
:101E48002B61314638463D60FFF74CF904460028BF
:101E580073D0042862D197F82B1011F020016ED1AD
:101E680068460095FEF78FFDE946064600285AD0D9
:101E780001285AD0431C5C425C4157F015F8804653
:101E8800002C54D131462846FEF7C0FC04460028F1
:101E98004DD14FF02033C5F83D30C5F84130A5F895
:101EA80045302E2385F83C30102385F847304146CD
:101EB80005F1520005F13C04FEF76CF93246214663
:101EC8002846FEF7B2FA05F15C031A4651F8040BEE
:101ED80042F8040B9942F9D12E23BA6885F85D308F
:101EE80028464FF0010AFEF7A0FA85F807A0384601
:101EF800FEF7CAFF0446D0B9F86941461630FEF726
:101F080049F93246F9692846FEF78FFAFB6910222B
:101F1800DA7285F807A0FEF7A3F9044620460DF506
:101F2800107DBDE8F0870724A7E70224A5E7002273
:101F380031464846FEF7F0FCF0E70824EEE70624B1
:101F4800ECE72DE9F0430E46ADF5217D022104466C
:101F58009146FEF7C7FA002840F0828008AD20AB12
:101F68002361314600232846AB602C60FFF7BAF89E
:101F7800002875D195F82B3013F0A00F74D1EE69B5
:101F8800D5F8088033466F4606F1200C1868596862
:101F98003A4603C2083363451746F7D1AE46BEE852
:101FA8000F00F77A14AEB446ACE80F00BEE80F0095
:101FB800ACE80F009EE80F008CE80F004946304659
:101FC800FFF790F840B9B368434503D132692B69EC
:101FD8009A4203D0082043E0042841D13046FEF756
:101FE80053FF00283CD1F1690DF10D0301F10D02F9
:101FF8000DF11D0053F804CB42F804CB8342F9D10C
:10200800188810809B789370FA0658BF47F020070D
:10201800CF720127E771CB7ADB061AD5B36843453F
:1020280017D06079FEF71AFC01462046FEF7BAF889
:102038000146D8B12046FEF704FA88B994F85D3015
:102048002E2B06D1B26804F15C012046FEF7EDF9AB
:10205800E7712846FEF74EFE10B92046FEF700F954
:102068000DF5217DBDE8F0830620F9E70220F7E7AA
:102078002DE9F041884692B002210746FEF732FA70
:10208800044698BB4FF0203301936D460093CDF87A
:10209800073008F1FF38064618F8010F1F281FD827
:1020A8009DF80030E52B20D01EB1731EEA5C202A73
:1020B80034D0002106A806970891FEF7B9FD04461A
:1020C800A0B9012106A8FEF72BFD90BB0D9B3EB3DE
:1020D80003CD186059602988AA789A72198121E07D
:1020E80040F2B51141F0D0F920B90624204612B0CB
:1020F800BDE8F08141F0DCF940F2B51141F0A6F9F4
:102108000028F2D01D4A12F8013B13B19842FAD1C7
:10211800EBE7FF2822D80B2E29D1E6E71E46C3E7B6
:10212800E5221A700123FB713846FEF799F8044638
:10213800DCE70428FBD1002ED8D0012106A8FEF741
:10214800B7FD04460028D1D1202201460D9847F05A
:10215800D7FC0D9B0822DA720D9BB9E7092EC4D86B
:1021680006F148036B44020A03F8482C013606F1CD
:1021780048036B44013603F8480C8DE7648306086E
:102188002DE9F04FD0F800908BB01C460023437126
:10219800039103790293154605210DF11F02484664
:1021A80000F01CFB9DF81F30DE0700F15182580734
:1021B80000F1508208AA0321484600F00FFB30B90D
:1021C800089A531EB3F5004F01D21A4201D00123D9
:1021D80008935DB19F4BA5F500729A4203D913206D
:1021E8000BB0BDE8F08F6B1E2B42F8D1002C00F02D
:1021F8003382149BB3F5007FC0F02E82029B002B24
:1022080000F09D80012300222146484600F0C2FAD2
:10221800002840F0B782B4F8FE214AF655239A42C6
:1022280001D00E20DCE7029B04EB031202F5D77302
:1022380092F8B221002AF4D003F10800FDF7A8FFB4
:10224800804603F10C00FDF7A3FF8246BAF1150F93
:10225800CDF824A0E5D9B5F5813FC0D2039B13F092
:1022680002030593039B00F0818003F00703022B10
:1022780000F08180039B03F00103C3F10303DBB289
:10228800089A032B4FEA552502F1FF3CC2F1000ED4
:1022980040F08980002D50D16F4A4FEA5A410125FC
:1022A80032F8023B13B18B4267D90023BAFBF5F22F
:1022B8006A499600A2F57F42F63A06F207268A4254
:1022C8004FEA5626ADD8002201924FF0200B032783
:1022D80008EB0B020092019AB11808EB0B021144AB
:1022E800032F01EB0C0208BF009802EA0E02A2EBD2
:1022F800010206BF80189344B618C8EB05120A44B9
:1023080008BF009052458CD8019AAAEB0202A2EBB2
:102318000B02032FA2EB0602B2FBF5F2049232D1B4
:1023280004994FF6F572914200F2AE81002B7FF4CA
:1023380078AF012D7FF675AF6D082B46B6E709AA71
:102348000121484600F04AFA002840F01B82039A0F
:10235800099B110707D43E2B7FF663AF4FF03F0868
:10236800A3EB080A72E7DDF80880F9E7DA077FF5DA
:1023780036AF022384E7032382E76D0090E752001B
:1023880017E02A461AE0022F40F0778104994FF6A9
:10239800F57291422ED9002B40F069816A00402ADB
:1023A80000F25C811546002DEBD12D494FEA1A3613
:1023B800012231F8023B0BB1B342E0D940F6F57384
:1023C800BAFBF2F69E429BBF06EB46060136023682
:1023D80076088CBF7600033606F2FF162B461546A4
:1023E8004FF020028CBF02270127760A01924FF096
:1023F800010B6DE7049940F6F572914200F24481B1
:10240800002B7FF40EAF6D00802DCCD909E7514623
:1024180004F12000FDF7BEFE5FE156F045FD0146E0
:1024280004F12700FDF7B6FEC6F30723E375802302
:1024380084F82430292384F826300A4BA67504F141
:102448002B0203F1100153F8040B42F8040B8B42E2
:10245800F9D181E100FEFF0056830608FFFFFE0F59
:10246800488306083ADF0508032F37D1012308F10E
:1024780006022146484600F09CF905994FF400727F
:10248800204647F03DFB5223237063706123A370FD
:1024980084F8E731049B41227221E27084F8E41148
:1024A80084F8E51184F8E621591E04F5F470FDF767
:1024B80071FE022384F8EC3108F10702012321465A
:1024C80084F8FEB184F8FFA1484600F072F90123B0
:1024D80008EB03022146484600F06BF9149A0021E4
:1024E8006FF30802204647F00BFB032F6FD1F82348
:1024F8002370FF236370A370E37023716371A3716A
:10250800E37123726372A3720F23E372149B4FEA81
:10251800532A5645B34628BFD3462146009A5B4600
:10252800484600F046F90146002840F02B814FF458
:102538000072204647F0E4FA009BB6EB0B065B44BA
:102548000093E6D1019B032F08BF2B460193019D01
:10255800009A554528BF55462B462146484600F067
:1025680028F9002840F00E81009B2B440093019B22
:102578005B1B0193EBD1032F32D0099BB3F5803F4E
:1025880030D2022F14BF01250425029B63B3002219
:1025980001232146484600F0FDF80246002840F095
:1025A800F180029B04EB031383F8B2510123214607
:1025B800484600F0FEF8002840F0E480002211466A
:1025C800484600F00BF9003818BF012008E6012F33
:1025D8006D49204618BF6FF00701FDF7DBFD95E751
:1025E8000C25D2E70625D0E7039B1B07E6D4029902
:1025F8004FF40072204647F083FA552384F8C251FD
:10260800099D84F8FE31AA2384F8FF3105EB0802FE
:1026180043F6C163B2FBF3F2FE2384F8C331930897
:1026280043F03F03012684F8C43184F8C5214146AC
:1026380004F5E37084F8BF6184F8C061FDF7AAFD72
:10264800294604F5E570FDF7A5FD029A3346AEE785
:102658000320C5E50A20C3E51120C1E5059B002B31
:102668007FF41AAE802A3FF6DCAD1546A6E6059A39
:10267800002A3FF4D6AD1D4618E6049A40F6F573D5
:102688009A423FF6CEAD01274FF400720021204652
:1026980047F036FA3D4B84F80EB01A6822605A6843
:1026A80062601A899B7AA37202232373012323741D
:1026B800FB1E18BF0123CBF3072B5B00BAF5803F45
:1026C8002281657384F80FB0A374BFF4A0AE84F8B8
:1026D80013A0CAF3072A84F814A0F82363753F23CC
:1026E8002376FF23A376414604F11C00FDF752FD33
:1026F800032F7FF492AE56F0D7FB014604F1430056
:10270800FDF748FD314604F12400FDF743FD02239F
:1027180084F82C30002384F82D3084F82E3084F887
:102728002F3084F8313084F83330802384F84030F7
:102738002923012284F84230154B84F830200622E0
:1027480084F8322003F1100104F1470253F8040B16
:1027580042F8040B8B42F9D119889B7811804FF00D
:10276800550B4FF0AA0A9370214684F8FEB184F8FD
:10277800FFA101234246484600F01BF805900028B7
:102788003FF472AE01202BE5F8FFFF001ADF0508C1
:1027980026DF050810B50C4611461A4638B12346FF
:1027A80004303FF039FE003818BF012010BD042066
:1027B800FCE710B50C4611461A4650B123460430C2
:1027C8003FF04DFE10F11E0F05D0003818BF012054
:1027D80010BD0420FCE70220FAE7000070B50C46A3
:1027E80015460646002831D0234A01F00703D15C7C
:1027F80071B3002204303FF05FFE062C26D8DFE8D4
:1028080004F008050A152518180006202BF0A8FA68
:102818002860002070BD062804D14FF4007028807D
:10282800B060F6E72BF09CFA80B2F8E701232B6042
:10283800EFE7062801D0430806D1336AB3FA83F3D9
:102848005B099B002B70E4E70123FBE70420E1E729
:10285800062CFBD801A353F824F000BF1B2800085E
:1028680013280008232800083528000855280008E0
:10287800432800084328000848800608022970B544
:10288800044615461E4613D15368012B0AD0022B65
:102898000CD01BB91168201DFFF7F5F8A3692B6050
:1028A800002070BD81692B681944F4E70169FAE7D3
:1028B80001290AD10430FEF7CAFF0028F0D0084BDE
:1028C8001B5C33604FF0FF30EBE7042906D1436807
:1028D800002BE5D00430FEF7F5FFEEE71623F0E70E
:1028E8002881060837B51D46043001AB1446FEF7AB
:1028F800F1FE38B1064B1B5C2B604FF0FF342046CD
:1029080003B030BD019BA342F9D01C23F4E700BFFC
:102918002881060813B51C46043001ABFEF73EFEBD
:1029280030B1044B1B5C23604FF0FF3002B010BD88
:102938000198FBE72881060870B5054608460C464D
:102948002BF03CF92346024602492846BDE8704070
:1029580001F0F8B8EDDE0508F8B5064610460F4652
:1029680031F0BAFB2B49421E2B48002412F8013FD4
:10297800BBB92C202BF010F90546384631F0ACFBDA
:102988002F1D0246E3B206F144003946FEF738FD32
:102998000646B8B328461DF08FFC204B985D2AF0F8
:1029A8004DFB782BE2D8712B08D8612B25D0622BF0
:1029B80026D02B2BDAD144F00304D7E7723B062B41
:1029C800D4D801A555F823F0F12900087529000885
:1029D800ED2900087529000875290008F72900085D
:1029E800FD2900080B49C1E744F00104BEE744F0A3
:1029F8000A04BBE744F00604B8E744F01204B5E75C
:102A08000146B3E7E30603D529693846FFF73BF8E3
:102A18002846F8BD588006088880060828810608D8
:102A28002DE9F04F099FDDE90BC4DDE90D5650B1E2
:102A3800884208D3710747BF0137013401350A219D
:102A480058BFB0FBF1F016F0020E39D0002D37D088
:102A58000BDB0A998D4233DA2C44A74203DC07F1D9
:102A6800FF3CA4EB0C0C00252AE0291D28DB694259
:102A78004FF000084FF00A0AB0FBFAF90AFB1904F4
:102A88001CB108EB0504414604E008F1010888453B
:102A98004846F1D11D464FF0300905F8029B7F1AD0
:102AA800091B4FF02E084C1E83F801802346A846C8
:102AB800002B5DDC002908BF00242B190025FF240A
:102AC80007F1FF3841464FF00A09002954DA611C22
:102AD800B94260DBFE2CD4BF002101213B44BCF18C
:102AE800000F07D0A4EB0804A4EB0C0C2E20302711
:102AF800644555D1BEF1000F09D041B119460B46C6
:102B080011F8010D3028FAD02E2808BF0B4606F020
:102B18000101294327D0710725D4002DBABF6D4282
:102B28002D212B2106F02004632D597044F0450413
:102B3800C8BF64211C704FF00A00C9BFB5FBF1F192
:102B48009C1CDC1C3031C8BF9970B5FBF0F62346DD
:102B5800B6FBF0F100FB1161303103F8021B00FBFA
:102B680016513031617000211970981ABDE8F08F44
:102B780008F8019B013B9BE78C42B4BF01F1010BB4
:102B88008B46B0FBF9FA09FB1A00303003F80B004A
:102B98000139504699E701332E21195501219DE746
:102BA80014B903F8010B012103F8017B013C9FE7ED
:102BB8002DE9F04F2DED028B884610EE101A97B0D4
:102BC80000291C46B0EE408A9DF888300E902ADA1B
:102BD800B4EE400AF1EE10FA25D6B1EE408A2D2364
:102BE8000E9F07F8013B08F1FF389FED7D7AF0EE64
:102BF800C87AF4EE477AF1EE10FA02F0200316DDF7
:102C080043F0490443F04E00FA1C43F04601002308
:102C180078703C70B97013700E9BD01A17B0BDEC69
:102C2800028BBDE8F08F002BDAD10E9FDDE7B4EE02
:102C3800488AF1EE10FA06D743F04E0143F04100FE
:102C4800FA1C0C46E3E742F02002662A4FD143F013
:102C5800040B002CA8F1030650DA0624A6423346DA
:102C6800A8BF23460C9318EE103A002B099353D0B3
:102C7800C3F3C7537F3B07EE903A9FED5A7AF8EEBD
:102C8800E77A18EE103A67EE877AB3F17E5FFDEEC9
:102C9800E77A38BF4FF0000917EE905A28BF4FF077
:102CA800010909EB0500B7EE000A00F01FFA099BBD
:102CB800B3F17E5F2CBF4FF0010A4FF0FF3AB4EE3C
:102CC800C80AF1EE10FA94BF012300234B451BD02C
:102CD8001BF0040F4CD0002D20DD631902339845FA
:102CE8001CDA8BF0040343F0020B013444E0672A3A
:102CF8000CBF43F0020B43F0010BAAE7632CADD1E4
:102D080010230C930924AEE7554405EB0900B7EEF0
:102D1800000A00F0EBF9D2E7099DD9E7A8F1020211
:102D2800A242D4BF33462346002D1EDA022B15DDFE
:102D3800AA1C17DA6E429E42A8BF1E46023E9C1B82
:102D4800092C0DDD1BF00403A4F1090207934FF0D1
:102D580009041CD004230793032319E05C1C0026F4
:102D68000022F7E75C1C0026EAE76C1C1C44FAE723
:102D78001BF0020FB9D034B1092C4FF00006E1DC8A
:102D88003246079603E02646224607940124072385
:102D9800062CA146A8EB0408A8BF4FF00609A8EB2B
:102DA8000308A9EB0503013B0D939045D4BF04EB41
:102DB8000803A3181193119BA3EB09030F93099B15
:102DC800002B00F0CB80079B002B00F0C380002D68
:102DD80080F2BD8046B909F1FF3008963B4613E002
:102DE800FFFF7F7F9B209A3E3B46302103F8021B62
:102DF8002E227A701846324646F082FEFF2203469B
:102E0800334409EB060008920A214FF0010C0A919D
:102E1800E14500F3A880B9F1060F40F3AF8001281F
:102E280040F3AC80B9F1070F00F0A480022800F04D
:102E3800A18002384FF06408B0EE480A0B9300F006
:102E480055F9F6EE007A30EE270A0A99BCEEC00A68
:102E58003A4610EE103A08FB03F8089B03930F9BC1
:102E680002930C9BCDE9045BCDE9009340460B9B94
:102E78001093FFF7D5FD15AA01460B90384600F0D0
:102E880065F9DDED157A0B9977EEC87A17EE902A79
:102E9800002A58D0B9F1060FC4BF09EB4902123A0B
:102EA8004FF0010AC8BF0AFA02FA0C22109BCDF8AB
:102EB8002C80F0EE678A109217EE902A002A089A62
:102EC80003920F9A02920C9A0A991393B4BFD044B2
:102ED800A8EB0A08CDE90092CDE9045B3A464046E2
:102EE800FFF79EFD15AA01461290384600F02EF90C
:102EF800DDED157A129977EEC87A17EE902A12B39B
:102F0800B0EEE77AF0EEE86A37EE667A139B17EED2
:102F1800102A002A35DB4FF00A0CB8FBFCF00CFB3A
:102F280010800243002A0B9A08BF42460B9208BF42
:102F3800F0EE678ABAF1010F28D0109A013A4FEAE9
:102F48005A0A1092B8D10E9B3944C81A66E60D98F1
:102F5800089543E7079B0D9808933FE7099A08925D
:102F68003B46104650E70A990A2251430A910CF150
:102F7800010C4DE701384FF00A085DE74FF00108F2
:102F88005AE7CDF82C80F0EE678AD3E70D9AA14571
:102F980002F101020D9202DA09F101090BE70B9A1D
:102FA8009045D0D0089A03920F9A02920C9ADDE9C4
:102FB8000A10CDE90092CDE9045B3A46FFF730FDEF
:102FC8000146C0E708B5044631B1054B4A6C0360B9
:102FD800096800232DF014F820461DF01DF900BFE4
:102FE800D01D06082DE9F04385B0044601921F461E
:102FF80046182AB1023A222A02D9394829F022FE73
:10300800B442254627D34FF00008711B284601AA71
:1030180028F07FFB002305440293A946B1454B469F
:103028002BD3029CB8F1000F00D06442640044F036
:103038000104AB4204D01D46B5422B4645D34BD0C4
:10304800019A28492848012A08BF00222CF098FF35
:103058003946FFF7B7FF14F8010B1EF051FA804606
:103068000028CDD12B782B2B01D12546CDE72D2B50
:10307800C9D125464FF00108C7E719F8012BA2F17D
:103088003004092C09D95F2AC8D042F02002A2F1E5
:1030980061011929C5D8A2F15704DDE90110A1423F
:1030A800BFD902AA37F004FE28B9029B1C44029437
:1030B80094EA4404B2D5019B03954246711B03A8C8
:1030C8002EF06DF9039B0446B3E7187801351EF01E
:1030D80017FA0028B0D1B3E7204605B0BDE8F08361
:1030E8003BC8050850C80508401D060808B52DED61
:1030F800028BE8B1B5EE400AF1EE10FA18D010EEE6
:10310800103AC3F3C752024462F3DE5310F10A0FB8
:1031180008EE103A0FD3434200EE903AB1EE040A9B
:10312800F8EEE00A45F088F9F0EE407A88EE270AD2
:10313800BDEC028B08BD07EE900AB1EE040AF8EE6A
:10314800E70A45F079F928EE000AF1E700232DE9AE
:10315800F0470144044690469E461D4618461F46C1
:103168009A461E468C4257D2A4461CF8012BA2F15F
:103178003009B9F1090F38D8022E07D1354A9042E3
:1031880002DC0A2202FB00906446EBE7B9F1000F6B
:1031980014D0314A974211D80A24B5B975460A2481
:1031A800CDB997421ED8012E4FF00A0208BF03F18D
:1031B800FF3302FB07974FF0000EE5E70EB9013524
:1031C800E2E70EF1010E0126DEE7974294BF67435E
:1031D8000133013DE1E797429CBF03F1FF336743A9
:1031E800013DDDE77EBB0133E5E78EB92E2AEAD043
:1031F80042F02009B9F1650F0CD1614504D9627814
:103208002B2A19D104F1020C8C4520D00226BBE7E9
:10321800022EEDD15F2AB7D0BAF1000F15D107EE13
:10322800907A1D44B8EE670A2844FFF75FFF88EDDF
:10323800000A2046BDE8F0872D2AE7D104F1020CE8
:103248004FF0010AE0E7AE46BDE74042E7E7002459
:10325800EFE700BF64666606979999192DE9F04F64
:103268002DED048B83B09FED658ADDF840909FEDCE
:10327800649A054690461F4646184FF0000AF0EE3D
:10328800488ACDED018AB5422C466CD34FF0000B2D
:10329800A31C9E4240F28980237843F02003692BC7
:1032A80073D1637843F020036E2B7ED1A37843F06B
:1032B8002003662B79D14FF0FF430193E31D9E4213
:1032C80004F103001AD9E37843F02003692B15D1E0
:1032D800237943F020036E2B10D1637943F0200348
:1032E800692B0BD1A37943F02003742B06D1E37922
:1032F80043F02003792B01D104F10800B8F1000F45
:103308000ED0B0420CD2037843F020036A2B07D1C9
:10331800844204BF4FF07E53019301304AF0020A01
:10332800BBF1000F05D0DDED017AF1EE677ACDED46
:10333800017A844240D00446B442254643D348D15A
:10334800BAF1010F38D09DED010ABAF1000F4AD049
:10335800F0EE400AB0EE480A03B0BDEC048BBDE8BD
:10336800F04F2BF04DBD15F8010B1EF0C9F8834640
:10337800002888D123782B2B01D12C4688E72D2BC8
:1033880084D12C464FF0010B82E76E2B0DD1637868
:1033980043F02003612B08D1A37843F020036E2B60
:1033A80003D1E01C8DED019AA8E701AA311B204644
:1033B800FFF7CCFE0028A1D1124913482CF04AFD92
:1033C8004946FFF7FFFD287801341EF099F80028D8
:1033D800B2D1002FF0D0BAF1000FEDD19DED018AE6
:1033E8004FF0010A4DE717B1DFED040AB4E703B067
:1033F800BDEC048BBDE8F04F2CF0F6BE00000000D9
:103408000000C07F5CC80508401D06080846114634
:1034180047F040BB70B5054608460E4646F0AEFB81
:10342800044620B102466B68286831469847204612
:1034380070BD00002DE9F74F0D9D9146AD1A9DF81E
:10344800302012F0DF0F06468A463BD0302A3BD1A7
:10345800224F4FF0100813F0200239D005EBD57336
:10346800A5EB63045D10002D36DDAB46D84542461A
:1034780073683068A8BF5A46394601929847019A3E
:10348800ABEB020BBBF1000FF0DCB9F1000F05D07C
:10349800736830684A46514698474D44002C0DDD04
:1034A8002544A045C146A8BFA146736830684A466E
:1034B8003946A4EB09049847002CF2DC284603B0EF
:1034C800BDE8F08F064FC4E70CAF4FF00108C2E724
:1034D80013F00104C7D02C460025D6E7900C060847
:1034E800A10C06082DE9F04F93B09246CA07DDE912
:1034F8001E761C9C9DF87490059380460D460BD44F
:103508008B0703D109687C4B994205D028462AF0DD
:1035180027FC450045F0010514F0210306D1B9F157
:10352800300F03D1B742B8BF37461E4628462DF0A4
:1035380044FE00280DF1280B1CDBA00716D52B2311
:103548008DF828300DF1290322079DF814101FD596
:10355800BAF1020F10D118464FF0300C00F802CB28
:1035680001F1010C83F801C0034611E0610701D5A0
:103578002023E5E75B46E7E7BAF1080F5BD1302087
:103588001870200645BF01F10E0058700133023350
:1035980000200EAA1870012EA3EB0B030B924FF01C
:1035A80010020693C4F34723C8BF1443CDE90C2087
:1035B80014F01002CDE902138DF82700059245D0CA
:1035C800CDE900A02B460DAA0CA90BA82DF0B8FC3C
:1035D80003782D2B824606D18DF827300D9B013BB1
:1035E80000F1010A0D93012E7ADD0D9D059BB54270
:1035F800B8BF35462BB19DF8273003B10135069B7E
:103608001D4424F00103AF42079371DD14F0010952
:10361800A7EB05056DD120230195009337494B464B
:103628004A464046FFF706FF4D460446059B4FF0C5
:103638003009C3B936E0BAF1100FA9D118464FF0D6
:10364800300C00F802CB01F1170C8BE70AABCDE97F
:1036580000A30DAA2B460CA90BA82DF071FC8246DD
:10366800C1E700252C469DF8273053B100230122DD
:10367800CDE900320DF127014046FFF7DBFE013F9F
:103688000444069B5BB100230122CDE90032594670
:10369800069A4046FFF7CEFE069B0444FF1A012E09
:1036A800D8BF3E46CDE90096079B0D9A5146404645
:1036B800FFF7C0FE04444DB12023009300230F49B7
:1036C80001951A464046FFF7B5FE04440B980EAB29
:1036D800984201D01CF0F0FD204613B0BDE8F08FF1
:1036E800059B0794002BBCD11D461C463E46D9E7D6
:1036F800002500249AE700BF7C230608C6DF0508DA
:103708002DE9F04307469007984658BFC2F3800357
:103718008DB05ABF5B01DBB22B23164600930A46D5
:10372800159BDDF85090212103A8FFF741FAF20517
:1037380004461FD52E2103A846F072FAD0B9652198
:1037480003A846F06DFAA8B96E2103A846F068FAF6
:1037580080B9631C04F130026A4430336B442E2173
:1037680002F8241C0234302203F8242CA3186B44DA
:1037780003F8240C73060ED504F13002631C0DEB1C
:103788000204252204F8242C03F130026A440021A3
:1037980002F8241C1C4616F010051DD09DF80C30AC
:1037A8002F2B4FF0000319D8012203A9CDE90032CD
:1037B8003846FFF73FFE09F1FF390546013C0DF198
:1037C8000D01CDE90089334622463846FFF732FE1F
:1037D80028440DB0BDE8F08303A9F2E703A91D460C
:1037E800EFE700002DE9F04F81468BB014464FF00B
:1037F80000080B461D4613F8012B0AB1252AF9D1FA
:10380800A94208D26E1AD9F80430D9F80000324615
:103818009847B04429460B78002B00F08B81202371
:103828004A1C03930027134613F8016B3EB12D2E53
:1038380025D01ED8202E29D02B2E24D00026154680
:1038480012F8013BA3F13001092922D92E2B4CD1C2
:103858006B782A2B23D00023154612F8011BA1F1FF
:10386800300009281ED80A2000FB031BABF13003E7
:10387800F2E7302EE2D147F01007039601E047F057
:1038880001071A46CFE747F00207FAE747F00407AF
:10389800F7E70A2101FB0633A3F13006CFE754F816
:1038A800043B023523EAE37B2B786C2B08BF0135F8
:1038B80095F800A0BAF1000F00F03C81BAF1780F3A
:1038C80009D8BAF1570F13D8BAF1470F5AD8BAF135
:1038D800440F00F21D81D9F80430D9F80000012204
:1038E8002946984708F1010885E04FF0FF3BDBE7E0
:1038F800AAF15803202BEED801A252F823F000BFFA
:1039080093390008DF380008DF380008DF3800087E
:10391800DF380008DF380008DF380008DF38000823
:10392800DF380008DF380008E53900080F3A0008DA
:1039380093390008193B0008193B0008193B000897
:10394800DF380008DF380008DF380008DF380008F3
:10395800DF380008DF380008DF380008DF380008E3
:1039680093390008253A0008DF3800084D3A000866
:10397800DF38000893390008DF380008DF3800080E
:1039880093390008BAF1500FA5D154F8040B0AF086
:10399800DF03502B014667D1BAF1640F6AD10028C2
:1039A80080F29D802D238DF8173041420A22512341
:1039B8000DF1280A0A3B0DF1180BB1FBF2FC02FBD2
:1039C8001C1009288CBFC01830300AF8010DDA45E0
:1039D8008E4661465DD07245EFD95AE054F8043BF3
:1039E800019653B1039B5549009304223B46484630
:1039F800FFF720FD8044691CFBE6039B00935049B8
:103A08003B460522F3E754F8043B8DF81830039B36
:103A1800009301963B46012206A9E8E706A954F857
:103A2800040B1DF050FBBBF1FF3F014604D0069B81
:103A38009B4538BFCDF818B0039B0093069A0196B2
:103A48003B46D4E754F804AB504646F097F8BBF130
:103A5800FF3F024602D0584528BF5A46039B0093B1
:103A680001963B465146C2E7BAF1640F97D0BAF1C6
:103A7800750F2ED02AF00F0300220F3B8DF8172068
:103A8800DBB21022002893D130238DF827300DF1B6
:103A9800270A17F0100B9DF817302DD0002B35D0C2
:103AA800039B0093012201923B460DF11701484602
:103AB800FFF7C0FC013E8346039B00930AAA0196C8
:103AC8003B46A2EB0A0251464846FFF7B3FC58446E
:103AD80090E700238DF817300A226123D2E7BB074D
:103AE80005D52B238DF817300A225123CAE7C7F3CF
:103AF80080035B01DBB2F5E7002BDDD006AA924517
:103B0800DAD90AF8013C0AF1FF3AD5E79B46D3E730
:103B1800073424F00704F4E8020155F0DDFECDE98E
:103B2800006B00EE100A039B3A4651464846FFF7E1
:103B3800E7FD5FE740460BB0BDE8F08F2BC30508F3
:103B480030C305080EB403B503AA52F8041B01924A
:103B5800FFF748FE02B05DF804EB03B070470000C1
:020000040802F0
:10000000FEE700000F49D1F8883043F47003C1F8CF
:1000100088300D4B1A68002042F001021A60986087
:100020001A6822F0847222F480321A60074A5A60F9
:100030001A6822F480221A60D8604FF000638B6047
:10004000704700BF00ED00E000380240103000248F
:1000500030B5002495B010252A4621460AA80494FC
:1000600029F052FD284B01941A6C42F080521A6418
:100070001B6C03F080530193019B244B029419687D
:1000800041F4404119601B68059403F44043029316
:100090000122029B4FF48033CDE908234FF4800105
:1000A0000223CDE90E31129304230F224FF4A05006
:1000B00013934FF48053CDE90B45CDE9060303922A
:1000C0001925C02208A8CDE910522DF073FC10B1FB
:1000D0000F4831F075FF119B109A30216B43B3FB31
:1000E000F2F3B3FBF1F201FB1232003A1299B3FBC7
:1000F000F1F118BF012203A833F0D6FA08B1054880
:10010000E7E715B030BD00BF003802400070004086
:10011000509D0508629D05080446DFF82CD00B4968
:100120000B4A0C4B03E051F8040B42F8040B9A42C3
:10013000F9D300200849094A01E041F8040B914233
:10014000FBD3204632F0BEB8F8BF012048CC0608E9
:100150000000002034000020340000202432002061
:1001600040F8044B40F8045B40F8046B40F8047B13
:1001700040F8048B40F8049B40F804AB40F804BB03
:1001800040F804CB40F804DB68467047024B5A69DC
:10019000026058610020704734000020024B5A6909
:1001A00012685A61704700BF34000020024B9A6900
:1001B000C0E900219861704734000020044A936927
:1001C0001968916110B15A6818461047704700BF0E
:1001D0003400002038B5054D0446AB690BB1A3428D
:1001E00000D338BD0120FFF7E9FFF6E73400002017
:1001F000C460056146618761C0F81C80C0F820902A
:10020000C0F824A0C0F828B0C0F82CD080ED0C8B2A
:1002100080ED0E9B80ED10ABC0F808E0FFF7B6BF95
:10022000124D6C6908B50CB932F038F860602046A0
:10023000FFF7D0FF23686B612046C46805694669F3
:100240008769D0F81C80D0F82090D0F824A0D0F88E
:1002500028B0D0F82CD090ED0C8B90ED0E9B90ED4B
:1002600010ABD0F808E00120704700BF3400002038
:1002700010B50021044600F0F9FA18B914B120466F
:100280000CF0D0FC10BD002100F0F0BA10B5012137
:10029000044600F0EBFA18B914B120460CF0C2FC89
:1002A00010BDFFF7E5BF10B501220C4600F002FCBF
:1002B00018B914B120460CF0B5FC10BD00F0FABB23
:1002C00000F0BABB2DE9F0432B4C864600254FF0D9
:1002D000030CD4F8A402002101310EEB01039A08AB
:1002E00003F00303825C5B0042FA03F303F00303B1
:1002F000022BF1D0D4F8B002090100EB0E108E08E9
:1003000089B300EB860603681A0729D1D4F8B01226
:100310005A1AC2F3011E99424FEA92174FEA4E0E43
:100320004FEA12121CD8D4F8B412994218D9D4F852
:10033000A48218F8071041FA0EF303F003030CFA35
:100340000EF9012B41EA09010AD104EB450E3F2DBC
:1003500008F807109ABF0135AEF8C422C4F8C032BD
:100360000430B042CFD12DB1013D04EB4503B3F8C9
:10037000C4E2AEE7BDE8F0833400002030B51C4C89
:10038000D4E9AB53C01AC109C0F3021E6B5C012251
:1003900002FA0EF223EA02036B54D4F8B82283095E
:1003A0004FEA101CB2EB901FD4F8A40288BFC4F827
:1003B000B832C15C4FEA9C0E0CF0030303255B00CE
:1003C00005FA03F321EA030100F80E100CF1010C09
:1003D000D4F8A4024FEA9C0E0CF0030310F80E10A0
:1003E0005A0041FA02F202F00302022AE7D030BDBD
:1003F0003400002021F00F0138B50B1A134A144CB9
:10040000013BDB00A2FB03235B0A9A00C4E9A903BA
:100410000546C4F8B4120732A1EB831101331D4421
:1004200003EBD202C4F8B0120021C4F8AC5229F098
:100430006BFB002301214FF0FF32C4E9AE33C4E966
:10044000D2322381A4F8441338BD00BFF32C23FA21
:1004500034000020024A138902331381704700BF21
:1004600034000020024A1389023B1381704700BF09
:1004700034000020024B1889003818BF0120704753
:1004800034000020F8B51C4D2B89002243F00103F5
:10049000C5F8C0222B81C5F8482305F1080405F5ED
:1004A000FC7654F8043F1A071AD1D5F8B022981AEE
:1004B000C0F3011193424FEA901C4FEA41014FEA09
:1004C00010100DD3D5F8B422934209D2D5F8A472F6
:1004D00017F80C2042FA01F303F00303012B02D0BA
:1004E000B442DED1F8BD03238B401A4307F80C2039
:1004F000FFF7E8FEF4E700BF3400002081B3F8B551
:10050000184E0F46051F002455F8043F1A071AD14C
:10051000D6F8B022981AC0F3011C9A424FEA901103
:100520004FEA4C0C4FEA10100DD8D6F8B4229A427C
:1005300009D9D6F8A4E21EF8012042FA0CF303F020
:100540000303012B03D00134A742DDD1F8BD0323FF
:1005500003FA0CF31A430EF80120FFF7B3FEF2E79B
:10056000704700BF340000202DE9F043614ED6F8FB
:10057000C032D6F8A41283B0C3B1D6F8A832002591
:100580009800C6F8C05288B10024A30804F0030202
:10059000CB5C5200134103F00303032B1FD0013443
:1005A0008442F2D3D6F8C032002BEAD1D6F8BC325E
:1005B0004FF000094FEAD3080127D6F8AC3213F800
:1005C00009504FEAC9043DB304F00303E8074FEABA
:1005D00094024FEA430314D46D080134F4E7204633
:1005E000FFF770FED6F8A832D6F8A4120134B4EBA7
:1005F000830F4FEA8300C8D3D6F8C032002BC0D196
:10060000D4E78A5C42FA03F303F00303012B09D019
:100610006D0804F10104D7D1C84509F1010326D0C2
:100620009946CAE7D6F8B0C223016A465CF803309F
:1006300040F2CA210CEB04105BB10BF097FC009B5D
:100640003BB10CF041FDDDE900010CF00DFD0CF0BB
:1006500051FDD6F8AC02E30804F00701C25C07FACA
:1006600001F122EA0102C254D6F8A412D0E7002711
:10067000BE463A46032402250FE0012806D104FABB
:1006800003F32CEA03030B704FF0010ED6F8BC32D3
:1006900001329A421FD8D6F8A412900802F0030340
:1006A00011F800C05B004CFA03F000F003000228D0
:1006B00001EB920119D00328DFD105FA03F32CEAEC
:1006C000030C81F800C0D6F8BC32174601329A42BA
:1006D0004FF0000EDFD93389002223F00103C6E971
:1006E000AE27338103B0BDE8F083BEF1000FEAD03E
:1006F000C5E700BF34000020044B1A89002142F0F6
:100700000102C3F8C0121A81FFF72EBF3400002087
:10071000554BD3E9AC122DE9F043521A0024D3E92A
:10072000A961C0E90144C0E90344C0E9054402608D
:100730004FEA810C22462146A146A6462746254679
:1007400016F809304FEA4E0E43FA0EF303F0030396
:10075000012B02F1010255D0022B24D033BB01370B
:100760009445876004F101046DD04FEA920902F0CC
:10077000030E16F809804FEA4E0148FA01F818F006
:1007800002013BD108F0030894452DD0B8F1010FC8
:1007900004D1C3689C4288BFC46000244FEA920918
:1007A00002F0030ECCE7013545600131944541D09C
:1007B0004FEA920902F0030E16F809304FEA4E088C
:1007C00043FA08F303F003089B0718D401292CD03F
:1007D000022903D1436901334361022183698B42BA
:1007E000D2D294458161D1D1C3689C4200D9C46002
:1007F0002D013F01C0E90157BDE8F083194694453A
:100800009ED1F5E701359445456025D04FEA920920
:1008100002F0030E16F809804FEA4E0148FA01F87B
:1008200018F0020FEAD108F00308036901330361ED
:100830000121D3E701299846F7D00229CAD083695C
:100840009942CED8D0E7C368A342D0D32D013F014F
:10085000C0E90157BDE8F083026901320261826993
:10086000002AC1D18361BFE7340000202DE9F8439D
:1008700000F10F0636093FD06E4C2389E3BBB4F874
:1008800044230D46E2BBD4F8B802D4F8A872B842AB
:1008900032D24FF0010ED4F8A4C20138013F6044B7
:1008A00067440021CCF1010818E04A1C964255D952
:1008B00013F00C0F42D18A1C964240F2AA8013F02A
:1008C000300F41D10132964240F2A8803F2B2ED802
:1008D000511C8E4240F2A780B8420AD008EB0009B2
:1008E00010F8013F9A07E0D013F00C0F21D101223C
:1008F000E2E7BEF1000F0FD000231846BDE8F883F1
:10090000D4E9D212914226D2D4F8B802D4F8A8720F
:10091000874288BF9E46BED836F0BEFED4F8B802E5
:10092000D4F8A872B8424FF0010EB4D3E4E7002126
:10093000D2E713F0300F0CD10122C4E703F03002EC
:10094000B2FA82F25209C1E73F2B8CBF002101218C
:10095000C2E70022BAE736F09FFE94E74FEA890922
:10096000A9EB0201012A01F1010704D109F10103F8
:100970009B08C4F8B832D4F8BC324B4538BF4B465C
:10098000B808C4F8BC3207F0030E1CF800804FEA28
:100990004E0E0123023103FA0EF343EA08038945A0
:1009A0000CF8003012D34FF0020E8808D4F8A4C21D
:1009B00001F003031CF800805B000EFA03F3013121
:1009C00043EA080389450CF80030EED2D4F84833E6
:1009D000D4F8B0823344C4F8483308EB071312014B
:1009E0001846002129F090F8EA074FEA0716034657
:1009F00083D50022D4F8AC0248F80620F908012279
:100A0000445C07F00707BA40224342541846BDE849
:100A1000F8834FEA890909F10109A1E74FEA890939
:100A200009F102099CE74FEA890909F103090A461D
:100A300096E700BF34000020034B1A89012A02D830
:100A400008B1FFF79BBC704734000020034610F04C
:100A50000F001CD1164AD2F8B012994216D810B421
:100A6000D2F8B4429C420ED95B1AD2F8A4429A0939
:100A7000C3F30111A25C49000A4102F00302012AFA
:100A80004FEA131305D05DF8044B70477047002000
:100A9000704701301A18910802F00302615C52009D
:100AA00041FA02F202F00302022AF2D00001EAE760
:100AB000340000202DE9F84F0F460646002800F0CC
:100AC000CA80734D2C89002900F09180002C40F0E1
:100AD0009280D5F8B002D5F8A8C2301A030903F104
:100AE000010E0F31BEEB8C0F4FEA11114FEA8C0A49
:100AF00080F0B780D5F8A492A4464FF001084FEAE1
:100B00009E040EF0030B19F804404FEA4B0B44FA15
:100B10000BF404F00304022C2BD02CB90CF1010CC3
:100B20000CEB08048C4226D341455CD065D3C44409
:100B30008C4525D2002A5ED0C209D5F8AC12895C5A
:100B400003F007031941384601F00101FFF78EFE5B
:100B5000044600284FD04FEA0812314628F090FF93
:100B60002B89012B02D83046FFF708FC2046BDE850
:100B7000F88F08F101080EF1010EF245BFD1D3E75D
:100B80005C1843449C421FD9980803F0030219F8EB
:100B9000007052004FF0020C01330CFA02F23A439B
:100BA0009C4209F800200FD99808D5F8A47203F0E8
:100BB000030217F800E052000CFA02F2013342EA95
:100BC0000E029C423A54EFD1D5F8BC32A1EB080298
:100BD0009C4238BF1C46120106EB08100021C5F8E4
:100BE000BC4228F091FF34462046BDE8F88F012C26
:100BF00001D8FFF7C3FB0024B8E75C18A00804F095
:100C0000030719F800E07F004FF0030CA8EB010187
:100C10000CFA07F72EEA0707012909F8007004F11A
:100C2000010410D003EB080EA708D5F8A43204F095
:100C30000302D95D52000CFA02F2013421EA0202E9
:100C40007445DA55F0D1D5F8B8328342CBD9C5F81E
:100C5000B8023446C8E701463846BDE8F84FFFF70A
:100C600005BE0129BFD029B14FF00108002A7FF449
:100C700063AFC0E7D5F8A442800903F0030359002D
:100C80000322235C8A4023EA02032354DBE700BFEC
:100C90003400002010B58AB0044603A8FFF738FDE1
:100CA000DDE90430039A009007492046E2F74EFF41
:100CB000DDE9083206980549CDE90020079A20466B
:100CC000E2F744FF0AB010BDC8E90508ECE90508E1
:100CD0002DE9F843DFF858914749D9F8B022074683
:100CE000E2F734FFD9F8A81289006DD0DFF844810B
:100CF000002515F03F0633D005F003067600D9F83D
:100D0000A422AB08D35C334103F00303022B63D06E
:100D1000032B5FD0012B4AD1D9F8B0222B01D25836
:100D200042455BD0354B9A425AD0354B9A425BD004
:100D3000344B9A4256D0344B9A4253D0334B9A425A
:100D400054D0334B9A4251D0324B9A4252D0324B0C
:100D50009A424DD0314B9A4214BF68224D2227E06F
:100D6000A9421ED9D9F8A4022C4602E001348C42D3
:100D700008D0A20804F00303825C5B0042FA03F38C
:100D80009B07F3D0621B7F2A0BD92549920938466D
:100D9000E2F7DCFED9F8A83224F03F05B5EB830F6B
:100DA00012D220492A013846E2F7D0FEA7E72E22C8
:100DB0001D493846E2F7CAFED9F8A8320135B5EB2D
:100DC000830F4FEA830194D338461849BDE8F843AE
:100DD000E2F724BB6D22EBE73D22E9E75422E7E787
:100DE0004C22E5E75322E3E74422E1E74122DFE733
:100DF0004222DDE74622DBE734EA050894240608B0
:100E00007C1C06086C2D06083C2D0608A419060853
:100E10003019060824210608C02106080026060805
:100E200050EA05086CEA050874EA050830EA050886
:100E300034000020B42E0608064A0346506A1A6899
:100E40004168C1F31E018A4202D3521A1A607047E8
:100E50000068F5E734000020014441F20553884260
:100E600004D398B2012838BF0120704710F8012B35
:100E700003EB43135340F2E7034B044A5A62002248
:100E8000C3F8FC21704700BF34000020785D0608DD
:100E90002DE9F04781460F46002943D0FFF7DCFFDC
:100EA000214B5C6A82460CB9204637E094F9073042
:100EB000E668002B06F1FF364FF0000516DB013621
:100EC00004F11808B54215D32468ECE705EB0608D1
:100ED0004FEA580808F106033A4654F823104846EA
:100EE00028F076FE0028CCBF45464646731B012BF2
:100EF000ECD8E4E7236933F815309A4510D16369DB
:100F00005B5D9F420CD158F825003A46494628F0CF
:100F100027FE28B96068C0F31E002844BDE8F087AA
:100F20000135CFE70120F9E7340000202DE9F8432F
:100F300080460F46FFF7ACFF002840F09280FF2F5D
:100F400003D9494949480BF075F8494DD5F8FC31AA
:100F50007E1CABB1D5E9801232448A422CD90246BC
:100F600031441846FFF7AAF9D5F8FC310446E0B938
:100F70000246D5F804121846FFF7A0F9C5F8FC415F
:100F8000802E344638BF80242046FFF77CF9034684
:100F9000C5F8FC01B8BB3046FFF775F90346C5F844
:100FA000FC0178BB30460BF03DFED5F80022324400
:100FB000C5F80022002BE3D0D5F804229C18324457
:100FC0004146C5F8042220463A464FF0000828F072
:100FD00057FD04F8078039462046FFF73DFF81465C
:100FE000686AD0E90262B2422BD376000A2E38BF7B
:100FF0000A26C6EBC6001830FFF745F948B9C5F810
:10100000FC01CFE734460022C5F80042C5F80422AF
:10101000D2E700F1180202EB8602696A026102EB74
:10102000460242614A680160C968C0F80C80C2F398
:101030001E020A44416862F31E01C0E901164246DD
:1010400068620169436921F812909F54911D6B6A8F
:1010500043F82140D96858680131C0F31E00D960B7
:101060001044BDE8F88300BF769D0508181E0608E9
:101070003400002010B5044628F084FD01462046C7
:10108000BDE81040FFF752BF07B5019001A8FFF778
:10109000D3FE019A036933F8120003B05DF804FB34
:1010A00007B5019001A8FFF7C7FE019B4269D05C1C
:1010B00003B05DF804FB07B5019001A8FFF7BCFE83
:1010C000019B063350F8230003B05DF804FB13B511
:1010D000019001A80C46FFF7AFFE019B4269D25C6C
:1010E0002260063350F8230002B010BD2DE9F8430A
:1010F0001D46002303600B6013602B60164BDFF866
:101100005C905C6A07468846164664B92B6832686C
:1011100013442B60BDE8F883336812F8010B0133E8
:10112000034433600DE04C45F0D03B6801333B6035
:10113000E268D8F800301344C8F800306269E36808
:10114000D1188A42E8D32046FFF780FC2B68246838
:1011500003442B60D9E700BF34000020785D060807
:10116000F8B50B4B0B4F5C6A0CB1BC4200D1F8BD1B
:10117000E36804F1180505EB8306B54201D3246842
:10118000F2E755F8042B04490448E2F7DFFCF4E7E2
:1011900034000020785D06087E9D0508880C06084E
:1011A00030B50023202511F8012F0AB9027030BD97
:1011B000120600F1010420D513B12023037020464C
:1011C0000B78124A03F07F036BB9013A12F8013F22
:1011D00013F0800F044600F101000BD003F07F03F1
:1011E00023700123DFE712F9014B002CFBDA013BEE
:1011F000DBB2E9E700F8013CE8E7012B04BF05702A
:1012000020460B7800F8013B0223CCE7859D0508BA
:1012100038B54368194403689942054610D9037BE1
:101220001BB1084800210AF005FF01F1100424F069
:101230000704083480682146FFF735F82C60A86061
:1012400038BD00BF181E060870B504460E4611468C
:101250001546FFF7DDFFD4E901302A461844314630
:1012600028F03EFC63682B44636070BD70B546682F
:10127000B142044628BF31460D460121FFF7C8FFA1
:10128000A368681C5919721B184428F029FC63686C
:10129000A06801336360284470BD38B50129044655
:1012A00038BF01210025084621606560FEF7E0FF98
:1012B0002573A06038BD38B505460C460131FFF7EF
:1012C000ECFF6C6038BD0023C0E9013201230160EE
:1012D0000373704738B514460546FFF7DEFF024B2F
:1012E0002560636038BD00BF49120208037B10B55A
:1012F000044613B98068FEF7E3FF0023A36010BD26
:1013000038B505461020FEF7B3FF29460446FFF71F
:10131000C4FF204638BD10B5044648B1037B13B95D
:101320008068FEF7CDFF2046BDE81040FEF7C8BF3D
:1013300010BD000038B5037B04460D461BB10748BD
:1013400000210AF077FE016880682944FEF7ABFFB0
:101350002368A0601D442560184438BD181E060887
:1013600038B504460D46FFF753FFD4E901301D445C
:101370006560184438BDD0E900239A4210B5044690
:1013800002D10121FFF7D6FFD4E901320021D15467
:10139000A06810BD10B50C460121FFF7E1FF0470F5
:1013A00010BD7F29F8B50C46CEB204D80121FFF755
:1013B000D7FF0670F8BD06F03F06B1F5006FC1F328
:1013C000871546F0800607D20221FFF7C9FF65F0B6
:1013D0003F0505704670EDE705F03F05B1F5803F2C
:1013E000C1F3073745F0800508D20321FFF7B8FFA6
:1013F00067F01F07077045708670DBE70421FFF771
:10140000AFFFA40C07F03F0764F00F0467F07F07FD
:10141000047047708570C670CCE738B5054608463D
:101420000C4628F0AFFB214602462846BDE838406E
:10143000FFF70ABF10B51446FFF718FF047010BD80
:1014400010B51446FFF712FF047010BD43688B42BD
:101450002CBF591A00214160704738B50446154623
:1014600062688A42084603D929448A4201D86060EA
:1014700038BDA368521A1844194428F031FB636838
:101480005B1B6360F4E70346007893F90020002AB1
:101490000ADA00F07F004022104206D113F8012F33
:1014A00002F0C001802904D0704720EA02005208EF
:1014B000F2E702F03F0242EA8010EFE7431C1846D1
:1014C0000133027802F0C002802AF8D07047034648
:1014D0000020994200D8704711F8012D02F0C00297
:1014E000802A18BF0130F4E70346014400209942E6
:1014F0001A4600D87047127802F0C002802A03F121
:10150000010318BF0130F2E77F289DBF024B185C32
:10151000C0F3400000207047B20C06087F289DBF32
:10152000024B185CC0F3C00000207047B20C0608E4
:101530007F289DBF024B185CC0F3800000207047DD
:10154000B20C06087F289DBF024B185CC0F38010C8
:1015500000207047B20C06087F2809D8064B1B5C98
:1015600013F00C0F06D1A0F15F03584258417047A9
:101570000020704701207047B20C06087F289DBFED
:10158000024B185CC0F3001000207047B20C060834
:101590007F289DBF024B185CC0F3401000207047AD
:1015A000B20C060808B50246FFF7E8FF02EB401050
:1015B00008BD08B50246FFF7EBFF404220F01F00D0
:1015C000104408BD3038092884BF20F020000738B7
:1015D000704710B502460144E5240020914203D82B
:1015E000B0FA80F0400917E012F8013B30B103F087
:1015F000C003802B11D10138C0B2EFE7BF2B09D94E
:10160000F72B09D8DB0803F0060344FA03F303F0D1
:101610000300E3E71B06E1D510BD0020FCE702391B
:1016200081420B4603D31A880239002AF8D00233CC
:10163000181A40107047B2EB131F70B504464FEAFA
:10164000131019D901EB4001101A03F00F030246E1
:101650002646012A0CBF0D880D68013A25FA03F5CC
:1016600026F8025B01F10201F3D104EB400434F8E7
:10167000023C03B9013870BD0020FCE7F0B5059CC1
:101680000025121B2E46AC420FD101EB4403174636
:1016900000EB4404411A9FB904EB420316B124F84D
:1016A00012600233181A4010F0BD31F8157033F88B
:1016B00015C067443E4420F81560360C0135E2E75A
:1016C0001D8835445D522E0C013F0233E3E7F0B430
:1016D000049F00260D463446D11BB7420BD105EBC3
:1016E00047030A4600EB4707451B7AB907EB410160
:1016F000F0BCFFF794BF35F816C033F816206444E9
:10170000A41A20F8164024140136E6E71E88344453
:101710005C53013A24140233E7E72DE9F043079CB8
:10172000DDF828E0DDE908760239154684464FF6F3
:10173000FF78A4EB020955B900EB42011FB1012368
:1017400020F812300231BDE8F043FFF768BF31F8EE
:10175000024F013D4444264405EB0904A5422ABF3B
:1017600033F8024B4FF6FF744444744486EA040E87
:1017700017FA8EF72CF8027B4FEA144E360C3F0C0A
:10178000D9E738B502290446806838BF02210D46E2
:1017900018B12368B1EB930F07D96900FEF783FDF9
:1017A0002368A06065F39F03236038BD38B5044605
:1017B0000C20FEF75DFD23682278054602F0010249
:1017C000C3F39D0023F0030313432B6063686B6036
:1017D0004000FEF74DFDA8602268A168C2F39D029B
:1017E000520028F04DF9284638BD994210B511D362
:1017F00013D800EB410002EB410209B9084610BDC5
:1018000030F8023D32F8024D1B1B002B02DB04D1E5
:101810000139F2E74FF0FF30F1E70120EFE710B5B3
:10182000044638B18068FEF74BFD2046BDE8104005
:10183000FEF746BD10BD70B505460C460221FFF708
:10184000A0FF002C2B78B4BF0122002262F300031A
:10185000AA682B70B4BF61422146012388B2090CEB
:1018600014461E4622F8020B03F10103F6D16E6006
:10187000208070BD0023C0E900338360704728B129
:1018800003789B0702D48068FEF71ABD704738B50D
:1018900004460D464968FFF774FF2A782378A0684C
:1018A00062F3000323706A686260A9685200BDE8B1
:1018B000384028F0E5B80A4629B90178426062F359
:1018C000000101707047FFF7B6BF08B5FFF7D2FF00
:1018D000BDE80840FFF7EFBF920042F0020210B4EB
:1018E00002600022C0E901215DF8044B1946FFF7B0
:1018F000E2BFF8B59DF8187014461D46042106464F
:10190000FFF73FFF22462B4627B1002D0CDA62423B
:1019100065EB4503317867F3000131700021716098
:1019200052EA030102D1F8BD0027F3E7D6E901101E
:101930004C1C746020F81120120C42EA03421B0C6C
:10194000EEE72DE9F3418DED010A019D0378EA0FE1
:1019500062F300030370C5F30F4313F4FF438046A3
:101960000BD198F8003023F0010388F800300023F1
:10197000C8F8043002B0BDE8F081B3F5FF4FF0D0F5
:10198000C5F3C754A4F17F06002EEADB05D101217F
:1019900002B0BDE8F041FFF74EBF162EC5F31605A5
:1019A000A4F16F07D8BFC6F1170645F400054FEA4A
:1019B0002717D5BFF540963C00260936D4BF3446DC
:1019C00024113946C8BF06F00F06FFF7DAFEC8F843
:1019D00004702CB1D8F808006200002128F094F8B7
:1019E0004EB1D8F8083005FA06F223F81420C6F1F3
:1019F0001006F5400134A742BCD0D8F8083023F8CF
:101A000014502D0CF6E72DE9F84304468F18C2F365
:101A10005B020D46511C9846089EFFF7B2FE2378E4
:101A200068F300032370AC4600221FFA86FEBC4513
:101A30006046626002D3401BBDE8F8830178A1F1E3
:101A40003003092B0CF1010C05D9A1F14103192B2D
:101A500012D8A1F13703B342EDD2A0689046814677
:101A6000B8F1000F0FD100EB420113B120F8123092
:101A70000231091A4A10DAE7A1F16103192BDAD809
:101A8000A1F15703E7E7B9F800100EFB013329F87D
:101A9000023B08F1FF381B0CE2E7F8B50446154697
:101AA0001E46C1B1531E1E444FF0FF37E9000F31EF
:101AB00009092046FFF765FE2378002123F0010382
:101AC000237061600B4645B9A06800EB4101FFF748
:101AD000A6FD6060F8BD0127E8E700220F2B08DCB7
:101AE000307898400243013D92B203F108033E442E
:101AF000F4D1A068013100EB41006160103B20F897
:101B0000022CE0E738B505780B7805F0010203F008
:101B100001030446981A08D1D1E90132D4E9011031
:101B2000FFF763FEEB0748BF404238BD884210B55F
:101B3000044601D0FFF7ABFE237823F001032370A6
:101B400010BD884210B5044601D0FFF7A0FE6368BF
:101B50003BB12378C3F3000282F0010262F3000379
:101B6000237010BD88421FB5044601D0FFF78FFED9
:101B7000626862B901212046FFF703FEA2680123D3
:101B800013806360237843F00103237010E023780F
:101B9000D9070FD523F00103237001230093A16817
:101BA000ADF80E3008460DF10E03FFF790FD6060B2
:101BB00004B010BD511C2046FFF7E3FD0123009344
:101BC000D4E90121ADF80E3008460DF10E03FFF700
:101BD00055FD6060D6E74B682DE9F04705460E4697
:101BE000144603B12AB931462846BDE8F047FFF74D
:101BF0004EBE02F10F014FEA111803EB1111FFF76E
:101C0000C0FDD6E9012308EB0207A96807F10040EF
:101C100014F00F0400F1FF3008BF10244FEA400910
:101C200001EB400003EB4203114686464FF0000CE7
:101C3000C4F1100409BB6FF001035A4383182CFA56
:101C400004FCC8F1010820F802C003EB48034FEA86
:101C500048021846524227F057FF09F1020903468D
:101C60004B4417B133F8022D9AB16F6032782B785C
:101C700062F300032B70BDE8F08733F802AD4AEA47
:101C80000C0C2CFA04FA2EF802A94FEA0C4C01397C
:101C9000D0E7013FE5E72DE9FF410D4649680646DB
:101CA000144601B132B92946304604B0BDE8F041CE
:101CB000FFF7EDBDFFF765FDB768D5F808806A68E6
:101CC000234641463846FFF7B6FC706029783378E2
:101CD00061F300033370DB0702460AD5002369680D
:101CE000ADF80E302009994201D0834204D18142DF
:101CF0000AD804B0BDE8F08138F813509DB1012333
:101D00008142ADF80E3012D904F00F04012338F8E7
:101D1000101003FA04F4013C214206D1BDF80E3044
:101D2000002BE6D003E00133DDE7ADF80E300123F0
:101D300012B93B807360DCE7009339460DF10E0366
:101D40003846FFF79BFC7060D3E72DE9F3410D4661
:101D50005768D1F804803B46144606469268A86846
:101D60004146FFF742FD01301EBF23462C461D466B
:101D700023782A7883EA020318BF4746DB0719D481
:101D8000791C3046FFF7FDFC6B680093D4E9012114
:101D9000AB68B068FFF772FC706023783278002877
:101DA0000CBF002303F0010363F30002327002B0A2
:101DB000BDE8F08139463046FFF7E3FC6B680093DD
:101DC000D4E90121AB68B068FFF781FCE4E72DE9B5
:101DD000F3410F464E68D2F804801446434631461C
:101DE00092680546B868FFF700FD01301EBF234624
:101DF0003C461F4623783A7883EA020316BFB04672
:101E000001260026DB0719D508F101012846FFF756
:101E1000B8FC7B680093D4E90121BB68A868FFF790
:101E20002DFC686018B1207800F0010070402B781C
:101E300060F300032B7002B0BDE8F08141462846F4
:101E4000FFF79FFC7B680093D4E90121BB68A86879
:101E5000FFF73DFCE5E74B682DE9F04F0C46516874
:101E60008B42154621BF2546194613461C462B7842
:101E7000DB0785B0064622D4237813F001071ED174
:101E8000FFF77FFCD4E9011CB068AD683B4699427E
:101E90000CD100EB4101FFF7C2FB002370603278E8
:101EA00063F30002327005B0BDE8F08F35F81320FF
:101EB0003CF81340224020F813200133E7E70131BA
:101EC0003046FFF75EFC2F782378D5F804C0B06861
:101ED000A26887EA0301C94301F0010E41F3000142
:101EE00089B207F0010947F300070291B9B20191E5
:101EF000A968A1F10208616803F0010A43F3000335
:101F00009BB2A1EB0C0100936746834603918FB906
:101F100000EB4C01BEF1000F03D0012320F81C3070
:101F20000231FFF77CFB706022782B78C2F300024D
:101F30001340B4E738F8021F019B5940039B013F4F
:101F40008944D9198F4225BF32F8021B009B0099A2
:101F500059408A44029B09EA0A0159401EFA81F15C
:101F60002BF8021B4FEA1A4A4FEA19494FEA114E61
